{
  "_format": "hh-sol-artifact-1",
  "contractName": "CoinToss",
  "sourceName": "contracts/CoinToss.sol",
  "abi": [
    {
      "inputs": [],
      "stateMutability": "payable",
      "type": "constructor"
    },
    {
      "anonymous": false,
      "inputs": [
        {
          "indexed": true,
          "internalType": "address",
          "name": "from",
          "type": "address"
        },
        {
          "indexed": false,
          "internalType": "uint256",
          "name": "timestamp",
          "type": "uint256"
        },
        {
          "indexed": false,
          "internalType": "uint256",
          "name": "wager",
          "type": "uint256"
        },
        {
          "indexed": false,
          "internalType": "bool",
          "name": "result",
          "type": "bool"
        }
      ],
      "name": "NewToss",
      "type": "event"
    },
    {
      "stateMutability": "payable",
      "type": "fallback"
    },
    {
      "inputs": [],
      "name": "functionCalled",
      "outputs": [
        {
          "internalType": "string",
          "name": "",
          "type": "string"
        }
      ],
      "stateMutability": "view",
      "type": "function"
    },
    {
      "inputs": [],
      "name": "getAllTosses",
      "outputs": [
        {
          "components": [
            {
              "internalType": "address",
              "name": "tosser",
              "type": "address"
            },
            {
              "internalType": "uint256",
              "name": "timestamp",
              "type": "uint256"
            },
            {
              "internalType": "uint256",
              "name": "wager",
              "type": "uint256"
            },
            {
              "internalType": "bool",
              "name": "result",
              "type": "bool"
            }
          ],
          "internalType": "struct CoinToss.Toss[]",
          "name": "",
          "type": "tuple[]"
        }
      ],
      "stateMutability": "view",
      "type": "function"
    },
    {
      "inputs": [],
      "name": "sendEther",
      "outputs": [],
      "stateMutability": "payable",
      "type": "function"
    },
    {
      "inputs": [
        {
          "internalType": "bool",
          "name": "guess",
          "type": "bool"
        }
      ],
      "name": "toss",
      "outputs": [
        {
          "internalType": "string",
          "name": "",
          "type": "string"
        }
      ],
      "stateMutability": "payable",
      "type": "function"
    },
    {
      "stateMutability": "payable",
      "type": "receive"
    }
  ],
  "bytecode": "0x60806040526200004f6040518060400160405280601981526020017f57652068617665206265656e20636f6e737472756374656421000000000000008152506200009e60201b620007bc1760201c565b60006002620000636200014160201b60201c565b6200006f9190620005a4565b146200007d57600062000080565b60015b6000806101000a81548160ff02191690831515021790555062000658565b6200013e81604051602401620000b5919062000365565b6040516020818303038152906040527f41304fac000000000000000000000000000000000000000000000000000000007bffffffffffffffffffffffffffffffffffffffffffffffffffffffff19166020820180517bffffffffffffffffffffffffffffffffffffffffffffffffffffffff83818316178352505050506200025360201b60201c565b50565b6000804342336040516020016200015991906200030e565b6040516020818303038152906040528051906020012060001c6200017e919062000402565b4542416040516020016200019391906200032b565b6040516020818303038152906040528051906020012060001c620001b8919062000402565b4442620001c69190620003a5565b620001d29190620003a5565b620001de9190620003a5565b620001ea9190620003a5565b620001f69190620003a5565b60405160200162000208919062000348565b6040516020818303038152906040528051906020012060001c90506103e8808262000234919062000402565b6200024091906200043a565b816200024d91906200049b565b91505090565b60008151905060006a636f6e736f6c652e6c6f679050602083016000808483855afa5050505050565b620002916200028b82620004ea565b62000572565b82525050565b620002ac620002a682620004d6565b6200055e565b82525050565b6000620002bf8262000389565b620002cb818562000394565b9350620002dd81856020860162000528565b620002e8816200063a565b840191505092915050565b6200030862000302826200051e565b6200059a565b82525050565b60006200031c828462000297565b60148201915081905092915050565b60006200033982846200027c565b60148201915081905092915050565b6000620003568284620002f3565b60208201915081905092915050565b60006020820190508181036000830152620003818184620002b2565b905092915050565b600081519050919050565b600082825260208201905092915050565b6000620003b2826200051e565b9150620003bf836200051e565b9250827fffffffffffffffffffffffffffffffffffffffffffffffffffffffffffffffff03821115620003f757620003f6620005dc565b5b828201905092915050565b60006200040f826200051e565b91506200041c836200051e565b9250826200042f576200042e6200060b565b5b828204905092915050565b600062000447826200051e565b915062000454836200051e565b9250817fffffffffffffffffffffffffffffffffffffffffffffffffffffffffffffffff048311821515161562000490576200048f620005dc565b5b828202905092915050565b6000620004a8826200051e565b9150620004b5836200051e565b925082821015620004cb57620004ca620005dc565b5b828203905092915050565b6000620004e382620004fe565b9050919050565b6000620004f782620004fe565b9050919050565b600073ffffffffffffffffffffffffffffffffffffffff82169050919050565b6000819050919050565b60005b83811015620005485780820151818401526020810190506200052b565b8381111562000558576000848401525b50505050565b60006200056b8262000586565b9050919050565b60006200057f8262000586565b9050919050565b600062000593826200064b565b9050919050565b6000819050919050565b6000620005b1826200051e565b9150620005be836200051e565b925082620005d157620005d06200060b565b5b828206905092915050565b7f4e487b7100000000000000000000000000000000000000000000000000000000600052601160045260246000fd5b7f4e487b7100000000000000000000000000000000000000000000000000000000600052601260045260246000fd5b6000601f19601f8301169050919050565b60008160601b9050919050565b610f5f80620006686000396000f3fe6080604052600436106100435760003560e01c80630e29df22146100e457806358593578146100ee578063cc81afc81461011e578063e2be6d2d1461014957610096565b36610096576040518060400160405280600781526020017f726563656976650000000000000000000000000000000000000000000000000081525060019080519060200190610093929190610917565b50005b6040518060400160405280600881526020017f66616c6c6261636b000000000000000000000000000000000000000000000000815250600190805190602001906100e1929190610917565b50005b6100ec610174565b005b610108600480360381019061010391906109cf565b6101c2565b6040516101159190610be7565b60405180910390f35b34801561012a57600080fd5b5061013361064a565b6040516101409190610be7565b60405180910390f35b34801561015557600080fd5b5061015e6106d8565b60405161016b9190610bc5565b60405180910390f35b6040518060400160405280600981526020017f73656e6445746865720000000000000000000000000000000000000000000000815250600190805190602001906101bf929190610917565b50565b606060003460026101d39190610cfb565b90506101de81610855565b82151560008054906101000a900460ff1615151415610498574781111561023a576040517f08c379a000000000000000000000000000000000000000000000000000000000815260040161023190610c29565b60405180910390fd5b60003373ffffffffffffffffffffffffffffffffffffffff168260405161026090610bb0565b60006040518083038185875af1925050503d806000811461029d576040519150601f19603f3d011682016040523d82523d6000602084013e6102a2565b606091505b50509050806102e6576040517f08c379a00000000000000000000000000000000000000000000000000000000081526004016102dd90610c09565b60405180910390fd5b600260405180608001604052803373ffffffffffffffffffffffffffffffffffffffff16815260200142815260200134815260200160011515815250908060018154018082558091505060019003906000526020600020906004020160009091909190915060008201518160000160006101000a81548173ffffffffffffffffffffffffffffffffffffffff021916908373ffffffffffffffffffffffffffffffffffffffff160217905550602082015181600101556040820151816002015560608201518160030160006101000a81548160ff02191690831515021790555050503373ffffffffffffffffffffffffffffffffffffffff167fb50390c23b8b084be5708b5d19661c470a867593525f9a13d541c7700233b8ef4234600160405161041393929190610c64565b60405180910390a26104596040518060400160405280600881526020017f796f7520776f6e210000000000000000000000000000000000000000000000008152506107bc565b6040518060400160405280601481526020017f596f7520776f6e21204b6565702069742075702e00000000000000000000000081525092505050610645565b600260405180608001604052803373ffffffffffffffffffffffffffffffffffffffff16815260200142815260200134815260200160001515815250908060018154018082558091505060019003906000526020600020906004020160009091909190915060008201518160000160006101000a81548173ffffffffffffffffffffffffffffffffffffffff021916908373ffffffffffffffffffffffffffffffffffffffff160217905550602082015181600101556040820151816002015560608201518160030160006101000a81548160ff02191690831515021790555050503373ffffffffffffffffffffffffffffffffffffffff167fb50390c23b8b084be5708b5d19661c470a867593525f9a13d541c7700233b8ef423460006040516105c593929190610c64565b60405180910390a261060b6040518060400160405280600981526020017f796f75206c6f73742100000000000000000000000000000000000000000000008152506107bc565b6040518060400160405280601481526020017f596f75206c6f7374212054727920616761696e2e0000000000000000000000008152509150505b919050565b6001805461065790610dd0565b80601f016020809104026020016040519081016040528092919081815260200182805461068390610dd0565b80156106d05780601f106106a5576101008083540402835291602001916106d0565b820191906000526020600020905b8154815290600101906020018083116106b357829003601f168201915b505050505081565b60606002805480602002602001604051908101604052809291908181526020016000905b828210156107b357838290600052602060002090600402016040518060800160405290816000820160009054906101000a900473ffffffffffffffffffffffffffffffffffffffff1673ffffffffffffffffffffffffffffffffffffffff1673ffffffffffffffffffffffffffffffffffffffff16815260200160018201548152602001600282015481526020016003820160009054906101000a900460ff161515151581525050815260200190600101906106fc565b50505050905090565b610852816040516024016107d09190610be7565b6040516020818303038152906040527f41304fac000000000000000000000000000000000000000000000000000000007bffffffffffffffffffffffffffffffffffffffffffffffffffffffff19166020820180517bffffffffffffffffffffffffffffffffffffffffffffffffffffffff83818316178352505050506108ee565b50565b6108eb816040516024016108699190610c49565b6040516020818303038152906040527ff5b1bba9000000000000000000000000000000000000000000000000000000007bffffffffffffffffffffffffffffffffffffffffffffffffffffffff19166020820180517bffffffffffffffffffffffffffffffffffffffffffffffffffffffff83818316178352505050506108ee565b50565b60008151905060006a636f6e736f6c652e6c6f679050602083016000808483855afa5050505050565b82805461092390610dd0565b90600052602060002090601f016020900481019282610945576000855561098c565b82601f1061095e57805160ff191683800117855561098c565b8280016001018555821561098c579182015b8281111561098b578251825591602001919060010190610970565b5b509050610999919061099d565b5090565b5b808211156109b657600081600090555060010161099e565b5090565b6000813590506109c981610f12565b92915050565b6000602082840312156109e157600080fd5b60006109ef848285016109ba565b91505092915050565b6000610a048383610b3d565b60808301905092915050565b610a1981610d55565b82525050565b6000610a2a82610cab565b610a348185610cce565b9350610a3f83610c9b565b8060005b83811015610a70578151610a5788826109f8565b9750610a6283610cc1565b925050600181019050610a43565b5085935050505092915050565b610a8681610d67565b82525050565b610a9581610d67565b82525050565b6000610aa682610cb6565b610ab08185610cea565b9350610ac0818560208601610d9d565b610ac981610e60565b840191505092915050565b6000610ae1602783610cea565b9150610aec82610e71565b604082019050919050565b6000610b04603583610cea565b9150610b0f82610ec0565b604082019050919050565b6000610b27600083610cdf565b9150610b3282610f0f565b600082019050919050565b608082016000820151610b536000850182610a10565b506020820151610b666020850182610b92565b506040820151610b796040850182610b92565b506060820151610b8c6060850182610a7d565b50505050565b610b9b81610d93565b82525050565b610baa81610d93565b82525050565b6000610bbb82610b1a565b9150819050919050565b60006020820190508181036000830152610bdf8184610a1f565b905092915050565b60006020820190508181036000830152610c018184610a9b565b905092915050565b60006020820190508181036000830152610c2281610ad4565b9050919050565b60006020820190508181036000830152610c4281610af7565b9050919050565b6000602082019050610c5e6000830184610ba1565b92915050565b6000606082019050610c796000830186610ba1565b610c866020830185610ba1565b610c936040830184610a8c565b949350505050565b6000819050602082019050919050565b600081519050919050565b600081519050919050565b6000602082019050919050565b600082825260208201905092915050565b600081905092915050565b600082825260208201905092915050565b6000610d0682610d93565b9150610d1183610d93565b9250817fffffffffffffffffffffffffffffffffffffffffffffffffffffffffffffffff0483118215151615610d4a57610d49610e02565b5b828202905092915050565b6000610d6082610d73565b9050919050565b60008115159050919050565b600073ffffffffffffffffffffffffffffffffffffffff82169050919050565b6000819050919050565b60005b83811015610dbb578082015181840152602081019050610da0565b83811115610dca576000848401525b50505050565b60006002820490506001821680610de857607f821691505b60208210811415610dfc57610dfb610e31565b5b50919050565b7f4e487b7100000000000000000000000000000000000000000000000000000000600052601160045260246000fd5b7f4e487b7100000000000000000000000000000000000000000000000000000000600052602260045260246000fd5b6000601f19601f8301169050919050565b7f4661696c656420746f207769746864726177206d6f6e65792066726f6d20636f60008201527f6e74726163742e00000000000000000000000000000000000000000000000000602082015250565b7f547279696e6720746f207769746864726177206d6f7265206d6f6e657920746860008201527f616e207468657920636f6e7472616374206861732e0000000000000000000000602082015250565b50565b610f1b81610d67565b8114610f2657600080fd5b5056fea26469706673582212204d1c04c8941c20e2d4f38bd141602a11ed3f0d261a0e1d0fe1d60ceee236ee1464736f6c63430008040033",
  "linkReferences": {},
  "deployedLinkReferences": {}
}