{
  "_format": "hh-sol-artifact-1",
  "contractName": "CoinToss",
  "sourceName": "contracts/CoinToss.sol",
  "abi": [
    {
      "inputs": [],
      "stateMutability": "payable",
      "type": "constructor"
    },
    {
      "anonymous": false,
      "inputs": [
        {
          "indexed": true,
          "internalType": "address",
          "name": "from",
          "type": "address"
        },
        {
          "indexed": false,
          "internalType": "uint256",
          "name": "timestamp",
          "type": "uint256"
        },
        {
          "indexed": false,
          "internalType": "uint256",
          "name": "wager",
          "type": "uint256"
        },
        {
          "indexed": false,
          "internalType": "bool",
          "name": "result",
          "type": "bool"
        }
      ],
      "name": "NewToss",
      "type": "event"
    },
    {
      "stateMutability": "payable",
      "type": "fallback"
    },
    {
      "inputs": [],
      "name": "functionCalled",
      "outputs": [
        {
          "internalType": "string",
          "name": "",
          "type": "string"
        }
      ],
      "stateMutability": "view",
      "type": "function"
    },
    {
      "inputs": [],
      "name": "getAllTosses",
      "outputs": [
        {
          "components": [
            {
              "internalType": "address",
              "name": "tosser",
              "type": "address"
            },
            {
              "internalType": "uint256",
              "name": "timestamp",
              "type": "uint256"
            },
            {
              "internalType": "uint256",
              "name": "wager",
              "type": "uint256"
            },
            {
              "internalType": "bool",
              "name": "result",
              "type": "bool"
            }
          ],
          "internalType": "struct CoinToss.Toss[]",
          "name": "",
          "type": "tuple[]"
        }
      ],
      "stateMutability": "view",
      "type": "function"
    },
    {
      "inputs": [],
      "name": "sendEther",
      "outputs": [],
      "stateMutability": "payable",
      "type": "function"
    },
    {
      "inputs": [
        {
          "internalType": "bool",
          "name": "guess",
          "type": "bool"
        }
      ],
      "name": "toss",
      "outputs": [
        {
          "internalType": "string",
          "name": "",
          "type": "string"
        }
      ],
      "stateMutability": "payable",
      "type": "function"
    },
    {
      "stateMutability": "payable",
      "type": "receive"
    }
  ],
  "bytecode": "0x60806040526200004f6040518060400160405280601981526020017f57652068617665206265656e20636f6e737472756374656421000000000000008152506200009e60201b620007f71760201c565b60006002620000636200014160201b60201c565b6200006f9190620005a4565b146200007d57600062000080565b60015b6000806101000a81548160ff02191690831515021790555062000658565b6200013e81604051602401620000b5919062000365565b6040516020818303038152906040527f41304fac000000000000000000000000000000000000000000000000000000007bffffffffffffffffffffffffffffffffffffffffffffffffffffffff19166020820180517bffffffffffffffffffffffffffffffffffffffffffffffffffffffff83818316178352505050506200025360201b60201c565b50565b6000804342336040516020016200015991906200030e565b6040516020818303038152906040528051906020012060001c6200017e919062000402565b4542416040516020016200019391906200032b565b6040516020818303038152906040528051906020012060001c620001b8919062000402565b4442620001c69190620003a5565b620001d29190620003a5565b620001de9190620003a5565b620001ea9190620003a5565b620001f69190620003a5565b60405160200162000208919062000348565b6040516020818303038152906040528051906020012060001c90506103e8808262000234919062000402565b6200024091906200043a565b816200024d91906200049b565b91505090565b60008151905060006a636f6e736f6c652e6c6f679050602083016000808483855afa5050505050565b620002916200028b82620004ea565b62000572565b82525050565b620002ac620002a682620004d6565b6200055e565b82525050565b6000620002bf8262000389565b620002cb818562000394565b9350620002dd81856020860162000528565b620002e8816200063a565b840191505092915050565b6200030862000302826200051e565b6200059a565b82525050565b60006200031c828462000297565b60148201915081905092915050565b60006200033982846200027c565b60148201915081905092915050565b6000620003568284620002f3565b60208201915081905092915050565b60006020820190508181036000830152620003818184620002b2565b905092915050565b600081519050919050565b600082825260208201905092915050565b6000620003b2826200051e565b9150620003bf836200051e565b9250827fffffffffffffffffffffffffffffffffffffffffffffffffffffffffffffffff03821115620003f757620003f6620005dc565b5b828201905092915050565b60006200040f826200051e565b91506200041c836200051e565b9250826200042f576200042e6200060b565b5b828204905092915050565b600062000447826200051e565b915062000454836200051e565b9250817fffffffffffffffffffffffffffffffffffffffffffffffffffffffffffffffff048311821515161562000490576200048f620005dc565b5b828202905092915050565b6000620004a8826200051e565b9150620004b5836200051e565b925082821015620004cb57620004ca620005dc565b5b828203905092915050565b6000620004e382620004fe565b9050919050565b6000620004f782620004fe565b9050919050565b600073ffffffffffffffffffffffffffffffffffffffff82169050919050565b6000819050919050565b60005b83811015620005485780820151818401526020810190506200052b565b8381111562000558576000848401525b50505050565b60006200056b8262000586565b9050919050565b60006200057f8262000586565b9050919050565b600062000593826200064b565b9050919050565b6000819050919050565b6000620005b1826200051e565b9150620005be836200051e565b925082620005d157620005d06200060b565b5b828206905092915050565b7f4e487b7100000000000000000000000000000000000000000000000000000000600052601160045260246000fd5b7f4e487b7100000000000000000000000000000000000000000000000000000000600052601260045260246000fd5b6000601f19601f8301169050919050565b60008160601b9050919050565b6111ee80620006686000396000f3fe6080604052600436106100435760003560e01c80630e29df22146100e457806358593578146100ee578063cc81afc81461011e578063e2be6d2d1461014957610096565b36610096576040518060400160405280600781526020017f7265636569766500000000000000000000000000000000000000000000000000815250600190805190602001906100939291906109b1565b50005b6040518060400160405280600881526020017f66616c6c6261636b000000000000000000000000000000000000000000000000815250600190805190602001906100e19291906109b1565b50005b6100ec610174565b005b61010860048036038101906101039190610a69565b6101c2565b6040516101159190610d17565b60405180910390f35b34801561012a57600080fd5b50610133610685565b6040516101409190610d17565b60405180910390f35b34801561015557600080fd5b5061015e610713565b60405161016b9190610cf5565b60405180910390f35b6040518060400160405280600981526020017f73656e6445746865720000000000000000000000000000000000000000000000815250600190805190602001906101bf9291906109b1565b50565b606060003460026101d39190610e97565b9050600083151560008054906101000a900460ff161515149050600060026101f9610890565b6102039190611024565b1461020f576000610212565b60015b6000806101000a81548160ff02191690831515021790555080156104d25747821115610273576040517f08c379a000000000000000000000000000000000000000000000000000000000815260040161026a90610d59565b60405180910390fd5b60003373ffffffffffffffffffffffffffffffffffffffff168360405161029990610cc5565b60006040518083038185875af1925050503d80600081146102d6576040519150601f19603f3d011682016040523d82523d6000602084013e6102db565b606091505b505090508061031f576040517f08c379a000000000000000000000000000000000000000000000000000000000815260040161031690610d39565b60405180910390fd5b600260405180608001604052803373ffffffffffffffffffffffffffffffffffffffff16815260200142815260200134815260200160011515815250908060018154018082558091505060019003906000526020600020906004020160009091909190915060008201518160000160006101000a81548173ffffffffffffffffffffffffffffffffffffffff021916908373ffffffffffffffffffffffffffffffffffffffff160217905550602082015181600101556040820151816002015560608201518160030160006101000a81548160ff02191690831515021790555050503373ffffffffffffffffffffffffffffffffffffffff167fb50390c23b8b084be5708b5d19661c470a867593525f9a13d541c7700233b8ef4234600160405161044c93929190610d79565b60405180910390a26104926040518060400160405280600881526020017f796f7520776f6e210000000000000000000000000000000000000000000000008152506107f7565b6040518060400160405280601481526020017f596f7520776f6e21204b6565702069742075702e0000000000000000000000008152509350505050610680565b600260405180608001604052803373ffffffffffffffffffffffffffffffffffffffff16815260200142815260200134815260200160001515815250908060018154018082558091505060019003906000526020600020906004020160009091909190915060008201518160000160006101000a81548173ffffffffffffffffffffffffffffffffffffffff021916908373ffffffffffffffffffffffffffffffffffffffff160217905550602082015181600101556040820151816002015560608201518160030160006101000a81548160ff02191690831515021790555050503373ffffffffffffffffffffffffffffffffffffffff167fb50390c23b8b084be5708b5d19661c470a867593525f9a13d541c7700233b8ef423460006040516105ff93929190610d79565b60405180910390a26106456040518060400160405280600981526020017f796f75206c6f73742100000000000000000000000000000000000000000000008152506107f7565b6040518060400160405280601481526020017f596f75206c6f7374212054727920616761696e2e000000000000000000000000815250925050505b919050565b6001805461069290610fb2565b80601f01602080910402602001604051908101604052809291908181526020018280546106be90610fb2565b801561070b5780601f106106e05761010080835404028352916020019161070b565b820191906000526020600020905b8154815290600101906020018083116106ee57829003601f168201915b505050505081565b60606002805480602002602001604051908101604052809291908181526020016000905b828210156107ee57838290600052602060002090600402016040518060800160405290816000820160009054906101000a900473ffffffffffffffffffffffffffffffffffffffff1673ffffffffffffffffffffffffffffffffffffffff1673ffffffffffffffffffffffffffffffffffffffff16815260200160018201548152602001600282015481526020016003820160009054906101000a900460ff16151515158152505081526020019060010190610737565b50505050905090565b61088d8160405160240161080b9190610d17565b6040516020818303038152906040527f41304fac000000000000000000000000000000000000000000000000000000007bffffffffffffffffffffffffffffffffffffffffffffffffffffffff19166020820180517bffffffffffffffffffffffffffffffffffffffffffffffffffffffff8381831617835250505050610988565b50565b6000804342336040516020016108a69190610c8f565b6040516020818303038152906040528051906020012060001c6108c99190610e66565b4542416040516020016108dc9190610caa565b6040516020818303038152906040528051906020012060001c6108ff9190610e66565b444261090b9190610e10565b6109159190610e10565b61091f9190610e10565b6109299190610e10565b6109339190610e10565b6040516020016109439190610cda565b6040516020818303038152906040528051906020012060001c90506103e8808261096d9190610e66565b6109779190610e97565b816109829190610ef1565b91505090565b60008151905060006a636f6e736f6c652e6c6f679050602083016000808483855afa5050505050565b8280546109bd90610fb2565b90600052602060002090601f0160209004810192826109df5760008555610a26565b82601f106109f857805160ff1916838001178555610a26565b82800160010185558215610a26579182015b82811115610a25578251825591602001919060010190610a0a565b5b509050610a339190610a37565b5090565b5b80821115610a50576000816000905550600101610a38565b5090565b600081359050610a63816111a1565b92915050565b600060208284031215610a7b57600080fd5b6000610a8984828501610a54565b91505092915050565b6000610a9e8383610c05565b60808301905092915050565b610abb610ab682610f37565b610ff6565b82525050565b610aca81610f25565b82525050565b610ae1610adc82610f25565b610fe4565b82525050565b6000610af282610dc0565b610afc8185610de3565b9350610b0783610db0565b8060005b83811015610b38578151610b1f8882610a92565b9750610b2a83610dd6565b925050600181019050610b0b565b5085935050505092915050565b610b4e81610f49565b82525050565b610b5d81610f49565b82525050565b6000610b6e82610dcb565b610b788185610dff565b9350610b88818560208601610f7f565b610b91816110e2565b840191505092915050565b6000610ba9602783610dff565b9150610bb482611100565b604082019050919050565b6000610bcc603583610dff565b9150610bd78261114f565b604082019050919050565b6000610bef600083610df4565b9150610bfa8261119e565b600082019050919050565b608082016000820151610c1b6000850182610ac1565b506020820151610c2e6020850182610c5a565b506040820151610c416040850182610c5a565b506060820151610c546060850182610b45565b50505050565b610c6381610f75565b82525050565b610c7281610f75565b82525050565b610c89610c8482610f75565b61101a565b82525050565b6000610c9b8284610ad0565b60148201915081905092915050565b6000610cb68284610aaa565b60148201915081905092915050565b6000610cd082610be2565b9150819050919050565b6000610ce68284610c78565b60208201915081905092915050565b60006020820190508181036000830152610d0f8184610ae7565b905092915050565b60006020820190508181036000830152610d318184610b63565b905092915050565b60006020820190508181036000830152610d5281610b9c565b9050919050565b60006020820190508181036000830152610d7281610bbf565b9050919050565b6000606082019050610d8e6000830186610c69565b610d9b6020830185610c69565b610da86040830184610b54565b949350505050565b6000819050602082019050919050565b600081519050919050565b600081519050919050565b6000602082019050919050565b600082825260208201905092915050565b600081905092915050565b600082825260208201905092915050565b6000610e1b82610f75565b9150610e2683610f75565b9250827fffffffffffffffffffffffffffffffffffffffffffffffffffffffffffffffff03821115610e5b57610e5a611055565b5b828201905092915050565b6000610e7182610f75565b9150610e7c83610f75565b925082610e8c57610e8b611084565b5b828204905092915050565b6000610ea282610f75565b9150610ead83610f75565b9250817fffffffffffffffffffffffffffffffffffffffffffffffffffffffffffffffff0483118215151615610ee657610ee5611055565b5b828202905092915050565b6000610efc82610f75565b9150610f0783610f75565b925082821015610f1a57610f19611055565b5b828203905092915050565b6000610f3082610f55565b9050919050565b6000610f4282610f55565b9050919050565b60008115159050919050565b600073ffffffffffffffffffffffffffffffffffffffff82169050919050565b6000819050919050565b60005b83811015610f9d578082015181840152602081019050610f82565b83811115610fac576000848401525b50505050565b60006002820490506001821680610fca57607f821691505b60208210811415610fde57610fdd6110b3565b5b50919050565b6000610fef82611008565b9050919050565b600061100182611008565b9050919050565b6000611013826110f3565b9050919050565b6000819050919050565b600061102f82610f75565b915061103a83610f75565b92508261104a57611049611084565b5b828206905092915050565b7f4e487b7100000000000000000000000000000000000000000000000000000000600052601160045260246000fd5b7f4e487b7100000000000000000000000000000000000000000000000000000000600052601260045260246000fd5b7f4e487b7100000000000000000000000000000000000000000000000000000000600052602260045260246000fd5b6000601f19601f8301169050919050565b60008160601b9050919050565b7f4661696c656420746f207769746864726177206d6f6e65792066726f6d20636f60008201527f6e74726163742e00000000000000000000000000000000000000000000000000602082015250565b7f547279696e6720746f207769746864726177206d6f7265206d6f6e657920746860008201527f616e207468657920636f6e7472616374206861732e0000000000000000000000602082015250565b50565b6111aa81610f49565b81146111b557600080fd5b5056fea26469706673582212206ae762b1a0c39a77530b8eb30878dfd66e6b88212d3a98ef766072490293888c64736f6c63430008040033",
  "linkReferences": {},
  "deployedLinkReferences": {}
}