{
  "_format": "hh-sol-artifact-1",
  "contractName": "CoinToss",
  "sourceName": "contracts/CoinToss.sol",
  "abi": [
    {
      "inputs": [],
      "stateMutability": "payable",
      "type": "constructor"
    },
    {
      "anonymous": false,
      "inputs": [
        {
          "indexed": true,
          "internalType": "address",
          "name": "from",
          "type": "address"
        },
        {
          "indexed": false,
          "internalType": "uint256",
          "name": "timestamp",
          "type": "uint256"
        },
        {
          "indexed": false,
          "internalType": "uint256",
          "name": "wager",
          "type": "uint256"
        },
        {
          "indexed": false,
          "internalType": "bool",
          "name": "result",
          "type": "bool"
        }
      ],
      "name": "NewToss",
      "type": "event"
    },
    {
      "stateMutability": "payable",
      "type": "fallback"
    },
    {
      "inputs": [],
      "name": "functionCalled",
      "outputs": [
        {
          "internalType": "string",
          "name": "",
          "type": "string"
        }
      ],
      "stateMutability": "view",
      "type": "function"
    },
    {
      "inputs": [],
      "name": "getAllTosses",
      "outputs": [
        {
          "components": [
            {
              "internalType": "address",
              "name": "tosser",
              "type": "address"
            },
            {
              "internalType": "uint256",
              "name": "timestamp",
              "type": "uint256"
            },
            {
              "internalType": "uint256",
              "name": "wager",
              "type": "uint256"
            },
            {
              "internalType": "bool",
              "name": "result",
              "type": "bool"
            }
          ],
          "internalType": "struct CoinToss.Toss[]",
          "name": "",
          "type": "tuple[]"
        }
      ],
      "stateMutability": "view",
      "type": "function"
    },
    {
      "inputs": [],
      "name": "sendEther",
      "outputs": [],
      "stateMutability": "payable",
      "type": "function"
    },
    {
      "inputs": [
        {
          "internalType": "bool",
          "name": "guess",
          "type": "bool"
        }
      ],
      "name": "toss",
      "outputs": [
        {
          "internalType": "string",
          "name": "",
          "type": "string"
        }
      ],
      "stateMutability": "payable",
      "type": "function"
    },
    {
      "inputs": [
        {
          "internalType": "bool",
          "name": "guess",
          "type": "bool"
        },
        {
          "internalType": "uint256",
          "name": "wager",
          "type": "uint256"
        },
        {
          "internalType": "address",
          "name": "tokenAddress",
          "type": "address"
        }
      ],
      "name": "tossToken",
      "outputs": [
        {
          "internalType": "string",
          "name": "",
          "type": "string"
        }
      ],
      "stateMutability": "payable",
      "type": "function"
    },
    {
      "stateMutability": "payable",
      "type": "receive"
    }
  ],
  "bytecode": "0x60806040526200004f6040518060400160405280601981526020017f57652068617665206265656e20636f6e737472756374656421000000000000008152506200009e60201b62000e1e1760201c565b60006002620000636200014160201b60201c565b6200006f9190620005a4565b146200007d57600062000080565b60015b6000806101000a81548160ff02191690831515021790555062000658565b6200013e81604051602401620000b5919062000365565b6040516020818303038152906040527f41304fac000000000000000000000000000000000000000000000000000000007bffffffffffffffffffffffffffffffffffffffffffffffffffffffff19166020820180517bffffffffffffffffffffffffffffffffffffffffffffffffffffffff83818316178352505050506200025360201b60201c565b50565b6000804342336040516020016200015991906200030e565b6040516020818303038152906040528051906020012060001c6200017e919062000402565b4542416040516020016200019391906200032b565b6040516020818303038152906040528051906020012060001c620001b8919062000402565b4442620001c69190620003a5565b620001d29190620003a5565b620001de9190620003a5565b620001ea9190620003a5565b620001f69190620003a5565b60405160200162000208919062000348565b6040516020818303038152906040528051906020012060001c90506103e8808262000234919062000402565b6200024091906200043a565b816200024d91906200049b565b91505090565b60008151905060006a636f6e736f6c652e6c6f679050602083016000808483855afa5050505050565b620002916200028b82620004ea565b62000572565b82525050565b620002ac620002a682620004d6565b6200055e565b82525050565b6000620002bf8262000389565b620002cb818562000394565b9350620002dd81856020860162000528565b620002e8816200063a565b840191505092915050565b6200030862000302826200051e565b6200059a565b82525050565b60006200031c828462000297565b60148201915081905092915050565b60006200033982846200027c565b60148201915081905092915050565b6000620003568284620002f3565b60208201915081905092915050565b60006020820190508181036000830152620003818184620002b2565b905092915050565b600081519050919050565b600082825260208201905092915050565b6000620003b2826200051e565b9150620003bf836200051e565b9250827fffffffffffffffffffffffffffffffffffffffffffffffffffffffffffffffff03821115620003f757620003f6620005dc565b5b828201905092915050565b60006200040f826200051e565b91506200041c836200051e565b9250826200042f576200042e6200060b565b5b828204905092915050565b600062000447826200051e565b915062000454836200051e565b9250817fffffffffffffffffffffffffffffffffffffffffffffffffffffffffffffffff048311821515161562000490576200048f620005dc565b5b828202905092915050565b6000620004a8826200051e565b9150620004b5836200051e565b925082821015620004cb57620004ca620005dc565b5b828203905092915050565b6000620004e382620004fe565b9050919050565b6000620004f782620004fe565b9050919050565b600073ffffffffffffffffffffffffffffffffffffffff82169050919050565b6000819050919050565b60005b83811015620005485780820151818401526020810190506200052b565b8381111562000558576000848401525b50505050565b60006200056b8262000586565b9050919050565b60006200057f8262000586565b9050919050565b600062000593826200064b565b9050919050565b6000819050919050565b6000620005b1826200051e565b9150620005be836200051e565b925082620005d157620005d06200060b565b5b828206905092915050565b7f4e487b7100000000000000000000000000000000000000000000000000000000600052601160045260246000fd5b7f4e487b7100000000000000000000000000000000000000000000000000000000600052601260045260246000fd5b6000601f19601f8301169050919050565b60008160601b9050919050565b611aaf80620006686000396000f3fe60806040526004361061004e5760003560e01c80630e29df22146100ef57806358593578146100f95780638bb2cb5214610129578063cc81afc814610159578063e2be6d2d14610184576100a1565b366100a1576040518060400160405280600781526020017f72656365697665000000000000000000000000000000000000000000000000008152506001908051906020019061009e929190611071565b50005b6040518060400160405280600881526020017f66616c6c6261636b000000000000000000000000000000000000000000000000815250600190805190602001906100ec929190611071565b50005b6100f76101af565b005b610113600480360381019061010e9190611168565b6101fd565b604051610120919061153b565b60405180910390f35b610143600480360381019061013e91906111ba565b6106d6565b604051610150919061153b565b60405180910390f35b34801561016557600080fd5b5061016e610cac565b60405161017b919061153b565b60405180910390f35b34801561019057600080fd5b50610199610d3a565b6040516101a691906114fe565b60405180910390f35b6040518060400160405280600981526020017f73656e6445746865720000000000000000000000000000000000000000000000815250600190805190602001906101fa929190611071565b50565b6060600034600261020e91906116db565b9050600083151560008054906101000a900460ff16151514905060006002610234610eb7565b61023e9190611868565b1461024a57600061024d565b60015b6000806101000a81548160ff02191690831515021790555061027b60008054906101000a900460ff16610faf565b801561052357478211156102c4576040517f08c379a00000000000000000000000000000000000000000000000000000000081526004016102bb9061159d565b60405180910390fd5b60003373ffffffffffffffffffffffffffffffffffffffff16836040516102ea9061146e565b60006040518083038185875af1925050503d8060008114610327576040519150601f19603f3d011682016040523d82523d6000602084013e61032c565b606091505b5050905080610370576040517f08c379a00000000000000000000000000000000000000000000000000000000081526004016103679061157d565b60405180910390fd5b600260405180608001604052803373ffffffffffffffffffffffffffffffffffffffff16815260200142815260200134815260200160011515815250908060018154018082558091505060019003906000526020600020906004020160009091909190915060008201518160000160006101000a81548173ffffffffffffffffffffffffffffffffffffffff021916908373ffffffffffffffffffffffffffffffffffffffff160217905550602082015181600101556040820151816002015560608201518160030160006101000a81548160ff02191690831515021790555050503373ffffffffffffffffffffffffffffffffffffffff167fb50390c23b8b084be5708b5d19661c470a867593525f9a13d541c7700233b8ef4234600160405161049d939291906115bd565b60405180910390a26104e36040518060400160405280600881526020017f796f7520776f6e21000000000000000000000000000000000000000000000000815250610e1e565b6040518060400160405280601481526020017f596f7520776f6e21204b6565702069742075702e00000000000000000000000081525093505050506106d1565b600260405180608001604052803373ffffffffffffffffffffffffffffffffffffffff16815260200142815260200134815260200160001515815250908060018154018082558091505060019003906000526020600020906004020160009091909190915060008201518160000160006101000a81548173ffffffffffffffffffffffffffffffffffffffff021916908373ffffffffffffffffffffffffffffffffffffffff160217905550602082015181600101556040820151816002015560608201518160030160006101000a81548160ff02191690831515021790555050503373ffffffffffffffffffffffffffffffffffffffff167fb50390c23b8b084be5708b5d19661c470a867593525f9a13d541c7700233b8ef42346000604051610650939291906115bd565b60405180910390a26106966040518060400160405280600981526020017f796f75206c6f7374210000000000000000000000000000000000000000000000815250610e1e565b6040518060400160405280601481526020017f596f75206c6f7374212054727920616761696e2e000000000000000000000000815250925050505b919050565b606060008290508073ffffffffffffffffffffffffffffffffffffffff166323b872dd3330876040518463ffffffff1660e01b815260040161071a9392919061149e565b602060405180830381600087803b15801561073457600080fd5b505af1158015610748573d6000803e3d6000fd5b505050506040513d601f19601f8201168201806040525081019061076c9190611191565b61077557600080fd5b600084600261078491906116db565b9050600086151560008054906101000a900460ff161515149050600060026107aa610eb7565b6107b49190611868565b146107c05760006107c3565b60015b6000806101000a81548160ff0219169083151502179055508015610af6578273ffffffffffffffffffffffffffffffffffffffff1663095ea7b330846040518363ffffffff1660e01b815260040161081c9291906114d5565b602060405180830381600087803b15801561083657600080fd5b505af115801561084a573d6000803e3d6000fd5b505050506040513d601f19601f8201168201806040525081019061086e9190611191565b5060008373ffffffffffffffffffffffffffffffffffffffff166323b872dd3033866040518463ffffffff1660e01b81526004016108ae9392919061149e565b602060405180830381600087803b1580156108c857600080fd5b505af11580156108dc573d6000803e3d6000fd5b505050506040513d601f19601f820116820180604052508101906109009190611191565b905080610942576040517f08c379a00000000000000000000000000000000000000000000000000000000081526004016109399061155d565b60405180910390fd5b600260405180608001604052803373ffffffffffffffffffffffffffffffffffffffff16815260200142815260200189815260200160011515815250908060018154018082558091505060019003906000526020600020906004020160009091909190915060008201518160000160006101000a81548173ffffffffffffffffffffffffffffffffffffffff021916908373ffffffffffffffffffffffffffffffffffffffff160217905550602082015181600101556040820151816002015560608201518160030160006101000a81548160ff02191690831515021790555050503373ffffffffffffffffffffffffffffffffffffffff167fb50390c23b8b084be5708b5d19661c470a867593525f9a13d541c7700233b8ef42896001604051610a6f939291906115bd565b60405180910390a2610ab56040518060400160405280600881526020017f796f7520776f6e21000000000000000000000000000000000000000000000000815250610e1e565b6040518060400160405280601481526020017f596f7520776f6e21204b6565702069742075702e000000000000000000000000815250945050505050610ca5565b600260405180608001604052803373ffffffffffffffffffffffffffffffffffffffff16815260200142815260200188815260200160001515815250908060018154018082558091505060019003906000526020600020906004020160009091909190915060008201518160000160006101000a81548173ffffffffffffffffffffffffffffffffffffffff021916908373ffffffffffffffffffffffffffffffffffffffff160217905550602082015181600101556040820151816002015560608201518160030160006101000a81548160ff02191690831515021790555050503373ffffffffffffffffffffffffffffffffffffffff167fb50390c23b8b084be5708b5d19661c470a867593525f9a13d541c7700233b8ef42886000604051610c23939291906115bd565b60405180910390a2610c696040518060400160405280600981526020017f796f75206c6f7374210000000000000000000000000000000000000000000000815250610e1e565b6040518060400160405280601481526020017f596f75206c6f7374212054727920616761696e2e00000000000000000000000081525093505050505b9392505050565b60018054610cb9906117f6565b80601f0160208091040260200160405190810160405280929190818152602001828054610ce5906117f6565b8015610d325780601f10610d0757610100808354040283529160200191610d32565b820191906000526020600020905b815481529060010190602001808311610d1557829003601f168201915b505050505081565b60606002805480602002602001604051908101604052809291908181526020016000905b82821015610e1557838290600052602060002090600402016040518060800160405290816000820160009054906101000a900473ffffffffffffffffffffffffffffffffffffffff1673ffffffffffffffffffffffffffffffffffffffff1673ffffffffffffffffffffffffffffffffffffffff16815260200160018201548152602001600282015481526020016003820160009054906101000a900460ff16151515158152505081526020019060010190610d5e565b50505050905090565b610eb481604051602401610e32919061153b565b6040516020818303038152906040527f41304fac000000000000000000000000000000000000000000000000000000007bffffffffffffffffffffffffffffffffffffffffffffffffffffffff19166020820180517bffffffffffffffffffffffffffffffffffffffffffffffffffffffff8381831617835250505050611048565b50565b600080434233604051602001610ecd9190611438565b6040516020818303038152906040528051906020012060001c610ef091906116aa565b454241604051602001610f039190611453565b6040516020818303038152906040528051906020012060001c610f2691906116aa565b4442610f329190611654565b610f3c9190611654565b610f469190611654565b610f509190611654565b610f5a9190611654565b604051602001610f6a9190611483565b6040516020818303038152906040528051906020012060001c90506103e88082610f9491906116aa565b610f9e91906116db565b81610fa99190611735565b91505090565b61104581604051602401610fc39190611520565b6040516020818303038152906040527f32458eed000000000000000000000000000000000000000000000000000000007bffffffffffffffffffffffffffffffffffffffffffffffffffffffff19166020820180517bffffffffffffffffffffffffffffffffffffffffffffffffffffffff8381831617835250505050611048565b50565b60008151905060006a636f6e736f6c652e6c6f679050602083016000808483855afa5050505050565b82805461107d906117f6565b90600052602060002090601f01602090048101928261109f57600085556110e6565b82601f106110b857805160ff19168380011785556110e6565b828001600101855582156110e6579182015b828111156110e55782518255916020019190600101906110ca565b5b5090506110f391906110f7565b5090565b5b808211156111105760008160009055506001016110f8565b5090565b60008135905061112381611a34565b92915050565b60008135905061113881611a4b565b92915050565b60008151905061114d81611a4b565b92915050565b60008135905061116281611a62565b92915050565b60006020828403121561117a57600080fd5b600061118884828501611129565b91505092915050565b6000602082840312156111a357600080fd5b60006111b18482850161113e565b91505092915050565b6000806000606084860312156111cf57600080fd5b60006111dd86828701611129565b93505060206111ee86828701611153565b92505060406111ff86828701611114565b9150509250925092565b600061121583836113ae565b60808301905092915050565b61123261122d8261177b565b61183a565b82525050565b61124181611769565b82525050565b61125081611769565b82525050565b61126761126282611769565b611828565b82525050565b600061127882611604565b6112828185611627565b935061128d836115f4565b8060005b838110156112be5781516112a58882611209565b97506112b08361161a565b925050600181019050611291565b5085935050505092915050565b6112d48161178d565b82525050565b6112e38161178d565b82525050565b60006112f48261160f565b6112fe8185611643565b935061130e8185602086016117c3565b61131781611926565b840191505092915050565b600061132f602683611643565b915061133a82611944565b604082019050919050565b6000611352602783611643565b915061135d82611993565b604082019050919050565b6000611375603583611643565b9150611380826119e2565b604082019050919050565b6000611398600083611638565b91506113a382611a31565b600082019050919050565b6080820160008201516113c46000850182611238565b5060208201516113d76020850182611403565b5060408201516113ea6040850182611403565b5060608201516113fd60608501826112cb565b50505050565b61140c816117b9565b82525050565b61141b816117b9565b82525050565b61143261142d826117b9565b61185e565b82525050565b60006114448284611256565b60148201915081905092915050565b600061145f8284611221565b60148201915081905092915050565b60006114798261138b565b9150819050919050565b600061148f8284611421565b60208201915081905092915050565b60006060820190506114b36000830186611247565b6114c06020830185611247565b6114cd6040830184611412565b949350505050565b60006040820190506114ea6000830185611247565b6114f76020830184611412565b9392505050565b60006020820190508181036000830152611518818461126d565b905092915050565b600060208201905061153560008301846112da565b92915050565b6000602082019050818103600083015261155581846112e9565b905092915050565b6000602082019050818103600083015261157681611322565b9050919050565b6000602082019050818103600083015261159681611345565b9050919050565b600060208201905081810360008301526115b681611368565b9050919050565b60006060820190506115d26000830186611412565b6115df6020830185611412565b6115ec60408301846112da565b949350505050565b6000819050602082019050919050565b600081519050919050565b600081519050919050565b6000602082019050919050565b600082825260208201905092915050565b600081905092915050565b600082825260208201905092915050565b600061165f826117b9565b915061166a836117b9565b9250827fffffffffffffffffffffffffffffffffffffffffffffffffffffffffffffffff0382111561169f5761169e611899565b5b828201905092915050565b60006116b5826117b9565b91506116c0836117b9565b9250826116d0576116cf6118c8565b5b828204905092915050565b60006116e6826117b9565b91506116f1836117b9565b9250817fffffffffffffffffffffffffffffffffffffffffffffffffffffffffffffffff048311821515161561172a57611729611899565b5b828202905092915050565b6000611740826117b9565b915061174b836117b9565b92508282101561175e5761175d611899565b5b828203905092915050565b600061177482611799565b9050919050565b600061178682611799565b9050919050565b60008115159050919050565b600073ffffffffffffffffffffffffffffffffffffffff82169050919050565b6000819050919050565b60005b838110156117e15780820151818401526020810190506117c6565b838111156117f0576000848401525b50505050565b6000600282049050600182168061180e57607f821691505b60208210811415611822576118216118f7565b5b50919050565b60006118338261184c565b9050919050565b60006118458261184c565b9050919050565b600061185782611937565b9050919050565b6000819050919050565b6000611873826117b9565b915061187e836117b9565b92508261188e5761188d6118c8565b5b828206905092915050565b7f4e487b7100000000000000000000000000000000000000000000000000000000600052601160045260246000fd5b7f4e487b7100000000000000000000000000000000000000000000000000000000600052601260045260246000fd5b7f4e487b7100000000000000000000000000000000000000000000000000000000600052602260045260246000fd5b6000601f19601f8301169050919050565b60008160601b9050919050565b7f4661696c656420746f20776974686472617720544f53532066726f6d20636f6e60008201527f74726163742e0000000000000000000000000000000000000000000000000000602082015250565b7f4661696c656420746f207769746864726177206d6f6e65792066726f6d20636f60008201527f6e74726163742e00000000000000000000000000000000000000000000000000602082015250565b7f547279696e6720746f207769746864726177206d6f7265206d6f6e657920746860008201527f616e207468657920636f6e7472616374206861732e0000000000000000000000602082015250565b50565b611a3d81611769565b8114611a4857600080fd5b50565b611a548161178d565b8114611a5f57600080fd5b50565b611a6b816117b9565b8114611a7657600080fd5b5056fea264697066735822122003a2620222957de41f69ca207e322118da6d835c5a1c66ce91e83ae68a5b4de964736f6c63430008040033",
  "linkReferences": {},
  "deployedLinkReferences": {}
}